:020000040800F2
:10000000FCFF002031200000E51E0000E51E00007E
:10001000E51E0000E51E0000E51E0000E51E0000D4
:10002000E51E0000E51E0000E51E0000E51E0000C4
:10003000E51E0000E51E0000E51E0000E51E0000B4
:10004000E51E0000E51E0000E51E0000E51E0000A4
:10005000E51E0000E51E0000E51E0000E51E000094
:10006000E51E0000E51E0000E51E0000E51E000084
:10007000E51E0000E51E0000E51E0000E51E000074
:10008000E51E0000E51E0000E51E0000E51E000064
:10009000E51E0000E51E0000E51E0000E51E000054
:1000A000E51E0000E51E0000E51E0000E51E000044
:1000B000E51E0000E51E0000E51E0000E51E000034
:1000C000E51E0000E51E0000E51E0000E51E000024
:1000D000E51E0000E51E0000E51E0000E51E000014
:1000E000E51E0000E51E0000E51E0000E51E000004
:1000F000E51E0000E51E0000E51E0000E51E0000F4
:10010000E51E0000E51E0000E51E0000E51E0000E3
:10011000E51E0000E51E0000E51E0000E51E0000D3
:10012000E51E0000E51E0000E51E0000E51E0000C3
:10013000E51E0000E51E0000E51E0000E51E0000B3
:10014000E51E0000E51E0000E51E0000E51E0000A3
:1001500081B0194900EA0101084600220EE004209E
:1001600022E0082020E010201EE020201CE040209B
:100170001AE0802018E040F2001015E00F49884294
:10018000EDD00F498842ECD00E498842EBD00E49A1
:100190008842EAD00D498842E9D00D498842E8D02A
:1001A0000C498842E7D010460B49096841EA000231
:1001B00009490A6001B0704700FCFFFF00080140D8
:1001C000000C0140001001400014014000180140E3
:1001D000001C0140002001401810024081B0CDF801
:1001E00000E08CB21546774B00EA03031E46184622
:1001F000FFF7AEFFB4F1FF0F0CD1734B9D4203D15B
:100200004FF033333360D9E0422D03D14FF0443304
:100210003360D3E04FF6FF739C4214D16A4B9D428A
:1002200007D14FF033333360341D4FF03333236045
:10023000C4E0422D07D14FF044333360341D4FF0FA
:1002400044332360BAE00021002005F001030BB124
:1002500000211DE005F0020333B105F4C0730BB1BA
:10026000082100E0042113E005F0040333B105F098
:1002700020030BB1042100E0002109E005F0080390
:1002800033B105F020030BB10C2100E00821FFE79A
:100290004E4B05EA03030BB1032009E005F400739C
:1002A0000BB1022004E005F480630BB10120FFE7ED
:1002B00005F00C030BB10143FFE704F0FF039BB211
:1002C000002B3BD0376800201FFA84F832462E46B8
:1002D00008282CD24FF0010303FA00F408EA0403C3
:1002E000A34222D185004FF00F03AB40DB4307EA66
:1002F000030401FA05F344EA03031D4606F481737F
:10030000B3F5817F05D102F214044FF0010383405D
:10031000236006F08203822B05D102F210044FF015
:100320000103834023602F46FFE7401CD0E717609E
:100330001FFA88F00F463146164602E00F4629465E
:10034000A0B2B0F1FF0F39D9331DD3F800800022DD
:10035000082A30D202F208044FF0010303FA04F431
:1003600000EA0403A34224D195004FF00F03AB40F1
:10037000DB4308EA030807FA05F348EA030801F437
:100380008173B3F5817F07D106F2140502F20804E8
:100390004FF00103A3402B6001F08203822B07D1B1
:1003A00006F2100502F208044FF00103A3402B608F
:1003B000FFE7521CCCE7331DC3F80080DDF800E0F6
:1003C00001B0704700FCFFFF14000800000808009F
:1003D00081B000F218010A68C2F3400181F0010106
:1003E000C9B2C8B201B0704781B000F214010A6806
:1003F00000F218010968090442EA0101084601B047
:100400007047FFFF81B00249086001B0704700BF2C
:10041000A481224281B00249086001B0704700BF48
:10042000A081224281B00249086001B0704700BF3C
:100430009401214281B00249086001B0704700BFB9
:100440009C81214281B00249086001B0704700BF21
:100450009881214281B00249086001B0704700BF15
:10046000A881224281B00249086001B0704700BFF4
:10047000B481224281B00249086001B0704700BFD8
:100480008801224281B00249086001B0704700BF74
:100490009001214281B00249086001B0704700BF5D
:1004A000A801224281B00249086001B0704700BF34
:1004B0008001214281B00249086001B0704700BF4D
:1004C000B001224281B00249086001B0704700BF0C
:1004D000AC01224281B00249086001B0704700BF00
:1004E0009881214281B00249086001B0704700BF85
:1004F0009481224281B00249086001B0704700BF78
:100500009881224281B0CDF800E00B46FFF76CFFE6
:1005100000EA03029A4240F2000200D10122D0B266
:10052000DDF800E001B0704781B0CDF800E04FF099
:1005300000021949884207D118490B6818490A680E
:1005400018490A601C460BE01749884207D1174931
:100550000B6817490A6813490A601C4600E01446F4
:1005600014490C6003461846FFF732FF70B9114971
:10057000096851B12CB905200A4C2468A047002015
:1005800005E0611E08460446FFE7ECE70120DDF8C0
:1005900000E001B0704700BF005400405000002050
:1005A0007C01002078010020005800405400002009
:1005B000800100205800002081B00249086001B08D
:1005C000704700BF9C81214281B00249086001B0A0
:1005D000704700BFB081224281B00249086001B07B
:1005E000704700BFA801224281B00249086001B0F3
:1005F000704700BFB881224281B00249086001B053
:10060000704700BF8C01224281B00249086001B0EE
:10061000704700BFB081224281B00249086001B03A
:10062000704700BFB001224281B00249086001B0AA
:10063000704700BFAC01224283B0CDF800E000F06B
:10064000FF031A09104603F00F02134614E0194A7B
:1006500002921FE0184A02921CE0184A029219E026
:10066000174A029216E0174A029213E0164A0292C3
:1006700010E0164A02920DE00028E8D00128E9D0E7
:100680000228EAD00328EBD00428ECD00528EDD0CE
:100690000628EED0012212B29A40ADF8042002984A
:1006A0000A46BDF80410FFF799FDDDF800E003B03D
:1006B000704700BF00080140000C014000100140DD
:1006C0000014014000180140001C014000200140BE
:1006D00081B00248006801B0704700BF6801002087
:1006E00081B0CDF800E0012252B23E490A6000F22A
:1006F00068010B686FF0006103EA0102144603F021
:100700000061C90E0B4602F00041B1F1004F02D169
:1007100035490A6801E035490A6804F47021090C7A
:100720000E464FF6FF7104EA01010D4604F4401134
:10073000B1F5401F0DD16FF0706102EA01010E4664
:100740002A490A686FF070610A4028490A603246F7
:1007500016E004F48011B1F5801F09D14FF00301B8
:10076000B140C94302EA010141F070610A4607E065
:10077000610D090105FA01F1C9430A4042F07062B6
:100780002BB1610D090105FA01F10A43FFE704F0FD
:100790000041B1F1004F02D113490A6001E0134951
:1007A0000A6040F2000A81464FEA8A0109EB010122
:1007B0000968B1F1FF3F10D009F134014FEA8A0313
:1007C000C91809680A4609EB030109680846114679
:1007D000FFF732FF0AF1010AE6E7DDF800E001B0B9
:1007E000704700BF000342421C000140040001406A
:1007F00081B00168C1F3801001B0704782B0CDF8BC
:1008000000E0034619460191FFF762FF40F2E8312C
:1008100000FB01F201990A601F490978C1F3031135
:10082000C8B21E4909180878C0B21A1D1968C1401B
:10083000116019490988C1F3022188B217490918C2
:100840000878C0B203F20802191D0968C14011609E
:1008500011490988C1F3C22188B2104909180878E2
:10086000C0B203F20C02191D0968C14011600A49A7
:100870000988C1F3813188B2094909180978C8B2D9
:1008800003F2100203F20C010968B1FBF0F11160F0
:10089000DDF800E002B0704704100240B122000011
:1008A000DC22000082B0CDF800E0029E4FF000058F
:1008B000564CA04206D1564C2768564C2568564CDB
:1008C00025600AE0554CA04206D1554C2768554C8E
:1008D0002568514C256000E02F46534C276000F2FC
:1008E00010054C00A4B22C60B94607469046354628
:1008F0001E464E493846FFF705FE88B94A4C246823
:100900006CB1B9F1000F06D10420434C2468A04714
:100910004FF6FF7076E0A9F101008146FFE7E8E7B6
:100920000020019729463746019E7C1EA04226D210
:1009300006F2100508EB000424782C603A4CD4F839
:10094000009082460D463A493046FFF7DBFD88B9F4
:10095000354C24686CB1B9F1000F06D104202E4C3F
:100960002468A0474FF6FF704CE0A9F101008146D2
:10097000FFE7E8E70AF1010420462946D5E706F239
:10098000100508EB000424782C60274C27680D46DE
:1009900028493046FFF7B6FD70B9234C246854B19E
:1009A00037B904201C4C2468A0474FF6FF7029E09B
:1009B000781E0746FFE7EBE7012D05D101253468D6
:1009C00065F3492434601CE00125346865F308248C
:1009D0003460154C2768354617492846FFF792FDC5
:1009E00078B9114C24685CB137B904200A4C2468EA
:1009F000A0474FF6FF7005E07C1E20460746FFE744
:100A0000EAE70020DDF800E002B070470054004043
:100A1000500000207C010020780100200058004098
:100A200054000020800100205800002082000700B0
:100A300080000700840007000100030083B0CDF8A8
:100A400000E003464FF0000026498B4206D12649BC
:100A50000C6826490A6826490A600BE025498B4242
:100A600007D12549086825490A6821490A600446D2
:100A700000E0044622490C60019402931846FFF7F7
:100A800053FD029B019C10B94FF6FF7025E0012237
:100A9000196862F30821196003F214010A68C2F3AD
:100AA000402111B14FF6FF7017E025461C4615494D
:100AB0002046FFF727FD78B91149096859B135B9C2
:100AC00006200B4C2468A0474FF6FF7005E0691E16
:100AD00008460546FFE7EAE70020DDF800E003B03E
:100AE000704700BF00540040500000207C010020EF
:100AF00078010020005800405400002080010020B0
:100B0000580000200100030081B00168C1F34010CB
:100B100001B0704782B0CDF800E0CFB201469846F0
:100B2000029B4FF000064FF00005C44CA14207D1D4
:100B3000C34CD4F80090C34C2568C34C25600BE02F
:100B4000C24CA14207D1C24C2068C24C2568BE4CA1
:100B50002560814600E0A946BF4CC4F80090F4E14E
:100B600001F210057C00A4B244F00104A4B22C6090
:100B7000019616464F46019A01F214042568C5F302
:100B8000400464B9B44C246844B127B90320AE4C86
:100B90002468A047E2E1781E0746FFE7ECE700255E
:100BA0000C6865F38A240C6001F21404206800BF0D
:100BB00001F218042468240440EA04042046012BAE
:100BC00005D101250C6865F349240C6004E001257A
:100BD0000C6865F308240C609F4C25689146984684
:100BE00037460E469D493046FFF78CFC68B99A4C53
:100BF00024684CB125B90320934C2468A047ADE18B
:100C00006C1E20460546FFE7ECE707EB090506F2F8
:100C1000100424682C70B8F1010F13D18E4C216898
:100C200030460568C5F340245CB98B4C24683CB160
:100C300021B90320844C2468A0478FE1491EFFE7B7
:100C4000EFE712E0844C216830460568C5F30024C4
:100C50005CB9814C24683CB121B903207A4C2468EA
:100C6000A0477BE1491EFFE7EFE777E101250C682C
:100C700065F38A240C6001250C6865F3CB240C60B5
:100C800001F210057C00A4B244F00104A4B22C606F
:100C90004F4601F214042568C5F3400464B96E4C54
:100CA000246844B127B90320674C2468A04755E164
:100CB000781E0746FFE7ECE701F21404206800BF46
:100CC00001F2180424682404204300250C6865F30D
:100CD0008A240C60604C276801F214042568C5F36F
:100CE000800464B95C4C246844B127B90320564C95
:100CF0002468A04732E1781E0746FFE7ECE7012BA6
:100D000005D101250C6865F349240C6004E0012538
:100D10000C6865F308240C60951901F2100424682E
:100D20002C70741C151901F2100424682C70012B0E
:100D300014D1494C22680D68C5F3402464B9464C6F
:100D4000246844B122B903203F4C2468A04705E140
:100D5000501E0246FFE7EEE7084613E03E4C2268CD
:100D60000D68C5F3002464B93B4C246844B122B932
:100D70000320354C2468A047F0E0501E0246FFE7F0
:100D8000EEE708460025046865F3CB240460E5E03F
:100D900001250C6865F38A240C6001F210057C00C3
:100DA000A4B244F00104A4B22C604646C846894669
:100DB00017461D462A494846FFF7A4FB78B9264C3A
:100DC00024685CB1B8F1000F04D103201E4C2468E4
:100DD000A047C3E0A8F101008046FFE7EAE7002151
:100DE000A8464A46B1463B46A9F10304A14222D295
:100DF000194C25688A4617461E4618493846FFF79B
:100E000081FB60B9144C246844B125B903200E4C11
:100E10002468A047A2E0681E0546FFE7EDE706EB61
:100E20000A0507F2100424682C700AF10104214617
:100E300033463A46D8E7084C00F014B80054004056
:100E4000500000207C010020780100200058004064
:100E500054000020800100205800002040000300C2
:100E600002000300276801930B461646424601998B
:100E700006F214042568C5F3800464B9394C24686B
:100E800044B127B90320384C2468A04766E0781E97
:100E90000746FFE7ECE70025346865F38A243460F1
:100EA000CD1806F2100424682C70581C2D4C2368B1
:100EB0001746024606F214042568C5F3800464B997
:100EC000284C246844B123B90320274C2468A04748
:100ED00044E0581E0346FFE7ECE7012F07D1012548
:100EE000346865F3492434601046324621E0012518
:100EF000346865F3082434601A4CD4F8008017462F
:100F00000D461A493046FFF7FDFA78B9154C2468AA
:100F10005CB1B8F1000F04D10320134C2468A04742
:100F20001CE0A8F101008046FFE7EAE729463246C7
:100F300038460D1802F2100424682C70441C0D1958
:100F400002F2100424682C7008E0B8F1010F3FF49D
:100F500007AEB8F1020F3FF489AE19E7DDF800E003
:100F600002B0704758000020780100200100030003
:100F700081B00268C2F3401101B9FAE7011D0968A6
:100F800088B201B07047FFFF81B0CDF800E00348A0
:100F9000FFF72EFCDDF800E001B07047004C004088
:100FA00081B0CDF800E00348FFF7E2FFDDF800E094
:100FB00001B07047004C004088B0CDF800E00E460C
:100FC000554B98420DD1012464B2544B1C60544CD3
:100FD000544B1C60544C554B1C60554C554B1C607D
:100FE0000FE0554B98420CD1012464B2534B1C6066
:100FF000534C4C4B1C60534C4C4B1C60524C4D4B57
:101000001C60019602901046FFF76AFB0298019E51
:10101000031D1B689CB26FF03F0304EA03039DB2FB
:1010200003AB01901846FFF7E9FB0198059F059C6B
:10103000464BB4FBF3F399B29BB245EA0304A4B266
:10104000031D1C600024036864F300030360002296
:101050003F4B9E4212D87300B7FBF3F4A4B2042CAA
:1010600002D204231C46FFE742EA04039AB200F2CC
:1010700020044B1C9BB2236091B23FE0032306FB8C
:1010800003F4B7FBF4F31FFA83F8192306FB03F507
:10109000B7FBF5F31FFA83F908FB04F409FB05F32A
:1010A0003C1BFB1A9C4205D203237343B7FBF3F4AA
:1010B000A4B206E019237343B7FBF3F4A4B244F4DB
:1010C000804440F6FF7304EA030313B944F00104BB
:1010D000FFE744F400439BB21A4392B200F22005AA
:1010E00040F22C1301FB03F4A4B240F2E833B4FB4A
:1010F000F3F39BB25B1C9BB22B6091B200F21C031A
:101100001960002303600124036864F30003036093
:10111000DDF800E008B0704700540040D4034242BC
:10112000DD1200006C010020991200007001002007
:10113000751200007401002000580040D80342429C
:101140009D11000019130000F512000040420F002D
:10115000A086010081B0CDF800E00348FFF7D4FC81
:10116000DDF800E001B07047004C004081B0CDF8E0
:1011700000E00348FFF7FCFEDDF800E001B0704737
:101180000050004081B0CDF800E00348FFF7F0FECA
:10119000DDF800E001B070470038014081B0CDF8C3
:1011A00000E00348FFF74AFCDDF800E001B07047BB
:1011B0000058004081B0CDF800E00348FFF7A4FCE0
:1011C000DDF800E001B070470038014081B0CDF893
:1011D00000E00348FFF7CCFEDDF800E001B0704707
:1011E0000044004081B0CDF800E00348FFF700FB69
:1011F000DDF800E001B070470038014081B0CDF863
:1012000000E00348FFF780FCDDF800E001B0704724
:101210000048004081B0CDF800E00348FFF7E8FA4D
:10122000DDF800E001B070470048004081B0CDF823
:1012300000E00348FFF79CFEDDF800E001B07047D6
:101240000048004081B0CDF800E00348FFF75CFCA7
:10125000DDF800E001B070470044004081B0CDF8F7
:1012600000E00348FFF7C4FADDF800E001B0704782
:101270000044004081B0CDF800E008B413460A46AF
:10128000C1B20448FFF70EFB01B0DDF800E001B089
:10129000704700BF0054004081B0CDF800E008B4B2
:1012A00013460A46C1B20448FFF734FC01B0DDF82A
:1012B00000E001B0704700BF0054004081B0ADF8BD
:1012C00000100146BDF800000B68C3F3C01202B95C
:1012D000FAE70A1D106001B07047FFFF81B0CDF83A
:1012E00000E00348FFF7AAFBDDF800E001B070471B
:1012F0000054004081B0CDF800E008B413460A461F
:10130000C1B20448FFF7CEFA01B0DDF800E001B049
:10131000704700BF0058004081B0CDF800E008B42D
:1013200013460A46C1B20448FFF7F4FB01B0DDF8EA
:1013300000E001B0704700BF0058004089B0CDF810
:1013400000E0834698B28C46BDF824100A9E04AC97
:10135000ADF80410ADF808002046FFF74FFABDF8CD
:101360000800BDF80410644CA34512D101256DB2EC
:10137000624C2560624D634C2560634D634C256073
:10138000634D644C2560644D644C2560079C039458
:1013900056E0634CA34512D101256DB2614C256026
:1013A000614D584C2560614D584C2560604D594C3D
:1013B0002560604D594C2560069C039440E05E4CCE
:1013C000A34512D101256DB25C4C25605C4D4D4C9E
:1013D00025605C4D4D4C25605B4D4E4C25605B4D52
:1013E0004E4C2560069C03942AE0594CA34512D12B
:1013F00001256DB2574C2560574D424C2560574D25
:10140000424C2560564D434C2560564D434C25605B
:10141000069C039414E0544CA34511D101256DB2F0
:10142000524C2560524D374C2560524D374C25604B
:10143000514D384C2560514D384C2560069C039425
:10144000ADF80410ADF808003046FFF749F9BDF8D3
:101450000800BDF804100BF1100500242C600BF1FE
:1014600010052C680C432C600BF10C0500242C603B
:1014700018B140F4806080B2FFE70BF10C052C68D6
:1014800004432C600BF10C060125346865F34D34E0
:1014900034600BF10C060125346865F3C304346035
:1014A0000BF10C060125346865F3820434600BF1FE
:1014B000140500242C60039D192465434FEA8C0415
:1014C000B5FBF4F76424B7FBF4F426013509642472
:1014D0006C433C1B240104F232056424B5FBF4F494
:1014E00004F00F0446EA04040BF10805A4B22C60D2
:1014F000DDF800E009B0704700380140380342428F
:101500004917000084010020851100008801002097
:10151000B51100008C010020E511000090010020B1
:1015200000440040C403424211170000CD110000E6
:10153000451200005D12000000480040C80342420E
:101540002D1700002D120000FD11000015120000E3
:10155000004C0040CC034242B1150000A10F000036
:1015600055110000890F000000500040D003424296
:10157000F91500006D11000081150000991500009B
:1015800081B0CDF800E00348FFF7BEFADDF800E0D7
:1015900001B070470050004081B0CDF800E0034832
:1015A000FFF726F9DDF800E001B070470050004079
:1015B00081B0CDF800E081B20348FFF77FFEDDF88F
:1015C00000E001B0704700BF004C004082B0CDF891
:1015D00000E040F20004ADF80440064C2468A04747
:1015E000BDF9041041EA000000B2DDF800E002B0ED
:1015F000704700BF9801002081B0CDF800E081B2B3
:101600000348FFF75BFEDDF800E001B0704700BF64
:101610000050004082B0CDF800E040F20004ADF888
:101620000440044C2468A047BDF90400DDF800E044
:1016300002B07047A001002081B044F67F77C0F26D
:1016400012077F1EFDD100BF00BF00BF00BF00BF5B
:1016500001B0704781B0CDF800E0019D2C4610B478
:1016600008B493B28AB201460348FFF767FE02B09E
:10167000DDF800E001B070470038014082B0CDF8DD
:1016800000E040F20004ADF80440054C2468A04797
:10169000BDF90440044320B2DDF800E002B0704719
:1016A0009C01002081B0CDF800E0019D2C4610B4D3
:1016B00008B493B28AB201460348FFF73FFE02B076
:1016C000DDF800E001B070470048004081B0CDF87F
:1016D00000E0019D2C4610B408B493B28AB20146D2
:1016E0000348FFF72BFE02B0DDF800E001B07047C1
:1016F0000044004081B0CDF800E00A4601460348AE
:10170000FFF75AFCDDF800E001B0704700540040DC
:1017100081B0CDF800E081B20348FFF7CFFDDDF8DE
:1017200000E001B0704700BF0044004081B0CDF838
:1017300000E081B20348FFF7C1FDDDF800E001B031
:10174000704700BF0048004081B0CDF800E081B292
:101750000348FFF7B3FDDDF800E001B0704700BFBC
:101760000038014082B0CDF800E001A906200870E1
:10177000FFF72CFF01A90A48007800230122FFF798
:101780007DFF0DF105010648007801230122FFF7D6
:1017900041FF0DF105000078DDF800E002B0704770
:1017A0004E00002081B0CDF800E0094902B440F2BB
:1017B000000340F2000240F20001FFF787FF01B092
:1017C000044A05490A600020DDF800E001B07047D6
:1017D00054200000111700006401002081B0CDF8F2
:1017E00000E00178CCB2A0B2034C2468A0470020EE
:1017F000DDF800E001B070476401002081B0CDF851
:1018000000E0094902B440F2000340F2000240F255
:101810000001FFF75BFF01B0044A05490A600020A0
:10182000DDF800E001B070475420000011170000FF
:101830006401002081B0CDF800E0094902B440F213
:10184000000340F2000240F20001FFF703FF01B085
:10185000044A05490A600020DDF800E001B0704745
:1018600098210000491700006401002081B001B0F8
:101870007047FFFF81B0026806490A60011D0A68CF
:1018800005490A6000F208010A6804490A6001B0CB
:10189000704700BF980100209C010020A00100209B
:1018A00082B0CDF800E001AA07211170511C087028
:1018B000FFF78CFE01AA074909780123C8B2114637
:1018C0000222FFF7DBFEFFF7B7FEDDF800E002B013
:1018D000704700BF4E00002081B00A4681B2002050
:1018E0008DB21146052805D20B1820221A70401C13
:1018F000C0B2F7E70B1800221A70401EC0B20C18D5
:101900000A23B5FBF3F203FB125292B2303222707B
:101910000A22B5FBF2F292B295B202B902E0401E81
:10192000C0B2ECE701B0704781B0CDF800E00949E2
:1019300002B440F2000340F2000240F20001FFF75F
:10194000B1FE01B0044A05490A600020DDF800E05C
:1019500001B070472C2100002D1700006401002009
:1019600082B0CDF800E001AA08211170511C087066
:10197000FFF72CFE01AA074909780123C8B21146D6
:101980000222FFF77BFEFFF757FEDDF800E002B012
:10199000704700BF4E00002081B038B94FF08A4236
:1019A00012490A60002212490A701CE0012807D17E
:1019B0004FF08A420D490A6000220D490A7012E078
:1019C000022807D14FF0884208490A6002220849DC
:1019D0000A7008E0032806D14FF0874203490A60E5
:1019E000042203490A7001B0704700BF940100202F
:1019F0004D00002082B0CDF800E001A9072008705A
:101A0000491C40200870FFF7E1FD01A90448007857
:101A100001230222FFF732FEDDF800E002B070473A
:101A20004E00002081B0CDF800E00168084604496E
:101A3000FFF760FE0020DDF800E001B0704700BF56
:101A4000C020000081B0CDF800E0016808460449DC
:101A5000FFF750FE0020DDF800E001B0704700BF46
:101A6000C020000081B0CDF800E00446054B1A709C
:101A70000846FFF7FFFE2046FFF7F8FEDDF800E01E
:101A800001B070474E00002085B0CDF800E08DF821
:101A90001010014602AB00221A7001918120FFF75D
:101AA000FFFEFFF75FFE8DF80F009DF81000FFF7B7
:101AB00057FF9DF81000FFF76FFF01999DF80F2069
:101AC00002F00502D2B2002A66D00191FFF77EFD36
:101AD00002AB334A127819460023D0B20122FFF735
:101AE000CDFD0DF109032E4A127819460123D0B21B
:101AF0000622FFF78FFD01990DF109056A1C127886
:101B00000A80B1F9002012020A80B1F900302A7867
:101B100043EA02020A808B1CEA1C12781A808B1C92
:101B20008A1CB2F9002012021A808C1C8A1CB2F99D
:101B30000030AA1C127843EA020222800B1D6A1DA3
:101B400012781A800B1D0A1DB2F9002012021A80A9
:101B50000C1D0A1DB2F900302A1D127843EA020258
:101B60002280B1F900300F4D2A7843FA02F20A8040
:101B70008C1C8A1CB2F900302A46127843FA02F211
:101B800022800C1D0A1DB2F900302A46127843FA51
:101B900002F22280FFF72EFFDDF800E005B070476B
:101BA0004E0000204D00002083B0CDF800E002463A
:101BB00010460D228DF808200A228DF809201FE01A
:101BC000FFF70CFE23E002782AB10190FFF706FE32
:101BD0000198401CF7E71AE002782AB10190FFF75C
:101BE000FDFD0198401CF7E702AA1046FFF7F6FD3D
:101BF0000DF109021046FFF7F1FD08E0062007E0AD
:101C00000029DDD00129DED00229E5D0F6E7002049
:101C1000DDF800E003B0704781B0CDF800E011E0DE
:101C20000846FFF781FE16E00846FFF7E7FD12E0E1
:101C30000846FFF7FFFD0EE00846FFF7B3FD0AE098
:101C4000012008E00028EBD00128EDD02028EFD0BB
:101C50003028F1D0F4E7DDF800E001B07047FFFF75
:101C600081B0CDF800E00E46002183B2002805DAED
:101C70000121404280B280B28FB201E098B28FB2AF
:101C80003146FFF729FE06213446B8B2002908D9AB
:101C900063184A1E92B2A21812781A70491E89B2AD
:101CA000F4E72022227070B1002081B22046421851
:101CB0001278202A02D1491C89B2F8E74A1E92B252
:101CC00083182D221A70DDF800E001B07047FFFF85
:101CD00081B0CDF800E08B4609E05846FFF7B2FE30
:101CE0000AE05846FFF79EFE06E0012004E00028C7
:101CF000F3D00128F5D0F8E7DDF800E001B0704737
:101D000081B01548006840F0010113480160134993
:101D10001348016010480168124801400E480160F4
:101D20000D4801686FF4802001400B4801600C48A9
:101D300001686FF4FE00014009480160064801682F
:101D40006FF0A0500140044801604FF000010648C8
:101D5000016001B0704700BF001002400000FFF0BA
:101D600004100240FFFFF6FE2C100240A086010086
:101D700081B0CDF800E00E4801460020FFF7A8FF33
:101D800042F280512020FFF747FF0A480221FFF767
:101D90000BFF44F67F77C0F212077F1EFDD100BF14
:101DA00000BF00BF00BF00BFDDF800E001B070471A
:101DB0006C1D00003900002081B0CDF800E0032147
:101DC0001F48FFF761FE1E48B0F900001D49FFF7EC
:101DD00047FF1D480121FFF7E7FE02211948FFF7E1
:101DE000E3FE1A48B0F900001649FFF739FF18481A
:101DF0000121FFF7D9FE02211248FFF7D5FE154851
:101E0000B0F900000F49FFF72BFF13480121FFF73E
:101E1000CBFE02210B48FFF7C7FE10480221FFF757
:101E2000C3FE41F6FF27C0F2B7077F1EFDD100BFFA
:101E300000BF00BF00BF00BFDDF800E001B0704789
:101E40005C00002062000020000000205E000020F6
:101E50000D000020600000201A0000202700002054
:101E600081B0CDF800E0302203490448FFF7FAFDC5
:101E7000DDF800E001B07047C42200000422000039
:101E800081B01CF8019B0BF8019BBBEB0A0FF8D14A
:101E900001B0704781B04FF000094FF0000CBDEB6E
:101EA0000A0F04DCBDEB0B0F01DBD446EA464BF80E
:101EB000049BBBEB0A0FFAD1BCEB0A0F05DDE2462F
:101EC000D9F800B00BF1040BF1E701B07047FFFF48
:101ED00081B002490248016001B070474019010019
:101EE0006801002081B0FEE701B0704781B0CDF8F5
:101EF00000E0464A464B474C47494BF6803081420A
:101F000006D94648006840F002014448016011E0EB
:101F100045F6C050814206D94048006840F00101B2
:101F20003E48016006E03D4801686FF0070001404F
:101F30003A480160FFF7E4FE39480360394804601D
:101F4000394802EA00013948016002F0010040B15D
:101F500019463648006800F00200002800D1F8E772
:101F600000E0194602F4803040B10B462F4800686B
:101F700000F40030002800D1F8E700E00B4602F042
:101F8000805068B12948006840F0805127480160BE
:101F90002648006800F00050002800D1F8E7FFE76D
:101FA00002F0806078B12148006840F080611F48ED
:101FB000016011461A461D48006800F000600028C4
:101FC00000D1F8E701E011461A4601F0807070B1C7
:101FD0001648006840F080711448016011461348AB
:101FE000006800F0007000B9F9E70A46FFE70C4806
:101FF000006800F00C01900000F00C00814200D05D
:10200000F5E7DDF800E001B0704700BF8100010591
:1020100002841D0044060100401901000020024016
:10202000041002402C100240FFFF0F00001002407D
:1020300081B0FFF75BFF00F0A1F9FFF749FF00F067
:102040004FF9FFF795FEFFF70BFFFFF7B5FEFCE733
:10205000FEE7FFFF3500000036000000FFFFFFFF36
:102060000000000000000000000000000000000070
:102070000000000000000000000000000000000060
:102080000000000000000000180800001800000018
:102090000000000000000000000000000000000040
:1020A0000000000000000000000000000000000030
:1020B0000000000000000000000000000800000810
:1020C0001600000017000000FFFFFFFF00000000E7
:1020D0000000000000000000000000000000000000
:1020E00000000000000000000000000000000000F0
:1020F0000000000028080000280800000000000080
:1021000000000000000000000000000000000000CF
:1021100000000000000000000000000000000000BF
:102120000000000000000000020000003800000075
:1021300039000000FFFFFFFF00000000000000006A
:10214000000000000000000000000000000000008F
:10215000000000000000000000000000000000007F
:102160001808000018000000000000000000000037
:10217000000000000000000000000000000000005F
:10218000000000000000000000000000000000004F
:102190000000000030001408090000000A000000E0
:1021A000FFFFFFFF00000000000000000000000033
:1021B000000000000000000000000000000000001F
:1021C00000000000000000000000000018080000EF
:1021D00018000000000000000000000000000000E7
:1021E00000000000000000000000000000000000EF
:1021F00000000000000000000000000000000000DF
:10220000040000008504000075040000650400005F
:1022100095040000C5040000B5040000A5040000FA
:1022200055040000050400001504000045040000EA
:1022300035040000FFFFFFFFFFFFFFFFFFFFFFFF71
:10224000FFFFFFFFFFFFFFFFFFFFFFFFFFFFFFFF9E
:10225000FFFFFFFFFFFFFFFFFFFFFFFFFFFFFFFF8E
:10226000FFFFFFFF2D2D20582061786973203A2051
:10227000002D2D20592061786973203A20002D2DE2
:10228000205A2061786973203A2000202D2D2D2DB1
:102290002D2D2D2D2D2D2D2D2D2D2D20005F5F5F12
:1022A0002053797374656D20496E6974205F5F5F98
:1022B00000000000000102030401020304060708F5
:1022C00009FFFFFFDD1200007512000099120000E7
:1022D00000000000000000000000000002040608EA
:1022E00000B5DFF824B0DFF824A0DFF824C0FFF742
:1022F000C7FDDFF820B0DFF820A0DFF820C0FFF72F
:10230000BFFD00BD704700BF000000204D00002051
:1023100064220000500000205C000020D022000059
:10232000FFFFFFFFFFFFFFFFFFFFFFFFFFFFFFFFBD
:10233000FFFFFFFFFFFFFFFFFFFFFFFFFFFFFFFFAD
:10234000FFFFFFFFFFFFFFFFFFFFFFFFFFFFFFFF9D
:10235000FFFFFFFFFFFFFFFFFFFFFFFFFFFFFFFF8D
:10236000FFFFFFFFFFFFFFFFFFFFFFFFFFFFFFFF7D
:10237000FFFFFFFFFFFFFFFFFFFFFFFF00B5DFF8DD
:1023800010B0DFF810A0FFF785FD00BD704700BF5B
:1023900000000020A4010020FFFFFFFFFFFFFFFF60
:00000001FF
