:100000001BEF12F00000000000EF00F00000000005
:0A0010000000000000000000F3D71C
:0E001C000101FBB102D08B9801D08B8812003D
:0E002A000101FBB102D08B9601D08B86120033
:0E0038000101FBB102D08D9601D08D86120021
:0E0046000101FBB102D0899401D0898412001F
:0E0054000101FBB102D08B9C01D08B8C1200FD
:0E0062000101FBB102D08B9401D08B841200FF
:0E0070000101FBB102D08B9A01D08B8A1200E5
:0E007E000101FBB102D08B9E01D08B8E1200CF
:0E008C000101FBB102D08A9201D08A821200DB
:0E009A000101FBB102D08D9401D08D841200C3
:0E00A8000101FBB102D08F9201D08F821200B5
:0E00B6000101FBB102D08F9401D08F841200A3
:0E00C4000101FBB102D08B9801D08B88120095
:0E00D2000101FBB102D08B9601D08B8612008B
:0E00E0000101FBB102D08A9401D08A84120083
:0E00EE000101FBB102D08B9801D08B8812006B
:0E00FC000101FBB102D08B9601D08B86120061
:0E010A000101FBB102D08F9001D08F80120056
:0E0118000101FBB102D08B9A01D08B8A12003C
:0E0126000101FBB102D08B9801D08B88120032
:0E0134000101FBB102D08B9801D08B88120024
:0E0142000101FBB102D08B9601D08B8612001A
:0E0150000101FBB102D08B9201D08B82120014
:0E015E000101FBB102D08B9A01D08B8A1200F6
:0E016C000101FBB102D08D9001D08D801200F8
:10017A000F0121B302D00000FBD7FBC11CFF120004
:0E018A00ACB202D00000FCD7FBC1ADFF1200EA
:0E0198000101FBB102D08B9001D08B801200D0
:0E01A6000101FBB102D0899001D089801200C6
:0E01B4000101FBB102D0899801D089881200A8
:0E01C2000101FBB102D0899201D089821200A6
:0E01D0000101FBB102D08B9601D08B8612008C
:0E01DE000101FBB102D08D9201D08D82120082
:0E01EC000101FBB102D08B9801D08B8812006C
:0E01FA000101FBB102D08B9E01D08B8E120052
:0E0208000101FBB102D08A9001D08A80120061
:0E0216000101FBB102D08B9601D08B86120045
:0E0224000101FBB102D08B9C01D08B8C12002B
:10023200F250026EF29E0500FF6A0150FE6E0050FF
:08024200FD6E02BEF28E1200F7
:10024A0068B409D01F0E6614016E0150000A03E15A
:0A025A00010E006E01D0006A1200D0
:10026400C7B409D01F0EC514016E0150000A03E182
:0A027400010E006E01D0006A1200B6
:0A027E00000E82BA010E006E12009D
:0A028800000E82B8010E006E120095
:0A029200000E82B8010E006E12008B
:0A029C00000E82BE010E006E12007B
:0A02A600000E80B4010E006E12007D
:0A02B000000E84B6010E006E12006D
:0A02BA00000E81B2010E006E12006A
:0A02C400000E82B6010E006E12005B
:1002CE0070C0F7F171C0F8F172C0F9F173C0FAF1B4
:1002DE000101F56BF66BF651120802E1F5518E082D
:1002EE0008E3ACDF005201E004D00101F54BF62B20
:1002FE00F2D70101120EF65D02E18F0EF55D03E3FA
:10030E007B0E006E26D0668066A022D00001705152
:10031E007111721173111BE00101F751F811F911EE
:10032E00FA110EE1AAC1E1FFABC1E2FF050EE66EC6
:10033E00A8C100F0A9C101F075DF010E006E09D051
:10034E00010E0101F75F000EF85BF95BFA5BDCD77B
:04035E00006A12001F
:10036200AECF01F0ABA202D0AB98AB8801C000F0D7
:02037200120077
:0A037400000E82B6010E006E1200AA
:0A037E00000E82BE010E006E120098
:0A038800000E82BC010E006E120090
:0A039200000E82BC010E006E120086
:0A039C00000E82B6010E006E120082
:0A03A600000E82B8010E006E120076
:1003B00070C0F7F171C0F8F172C0F9F173C0FAF1D1
:1003C000A19A6686A1BA20D00001705171117211F4
:1003D000731119E00101F751F811F911FA110CE14B
:1003E000AAC1E1FFABC1E2FF030EE66EA8C100F0B7
:1003F000A9C101F01EDF08D0010E0101F75F000E58
:10040000F85BF95BFA5BDED701016ACFF6F1F551D3
:10041000000A02E1668A01D0669AA19A668870C0D5
:10042000F7F171C0F8F172C0F9F173C0FAF1A1BA35
:1004300020D00001705171117211731119E0010186
:10044000F751F811F911FA110CE1AAC1E1FFABC1A2
:10045000E2FF030EE66EA8C100F0A9C101F0E9DEDB
:1004600008D0010E0101F75F000EF85BF95BFA5B43
:08047000DED7F6C100F0120016
:0A047800000E80B2010E006E1200AB
:0A048200000E80B8010E006E12009B
:0A048C00000E84B2010E006E120093
:100496009E96F5C1C9FF6AC0F6F16BC0F7F16CC054
:1004A600F8F16DC0F9F1C7A422D000016A516B11B1
:1004B6006C116D111BE00101F651F711F811F911DC
:1004C6000EE18EC1E1FF8FC1E2FF040EE66E8CC124
:1004D60000F08DC101F0AADE010E006E3BD0010EC8
:1004E6000101F65F000EF75BF85BF95BDCD76AC0CB
:1004F600F6F16BC0F7F16CC0F8F16DC0F9F19EB67C
:1005060022D000016A516B116C116D111BE00101C3
:10051600F651F711F811F9110EE18EC1E1FF8FC105
:10052600E2FF040EE66E8CC100F08DC101F07EDEA6
:10053600010E006E0FD0010E0101F65F000EF75B93
:10054600F85BF95BDCD7C5BC02D0006A03D0C58472
:06055600020E006E12000F
:10055C006AC0F7F16BC0F8F16CC0F9F16DC0FAF13B
:10056C009E96C5869EB620D000016A516B116C1107
:10057C006D1119E00101F751F811F911FA110CE1A3
:10058C008EC1E1FF8FC1E2FF030EE66E8CC100F05D
:10059C008DC101F048DE08D0010E0101F75F000E9D
:1005AC00F85BF95BFA5BDED70101C9CFF6F1F551C7
:1005BC00000A02E1C58A01D0C59A9E96C5886AC018
:1005CC00F7F16BC0F8F16CC0F9F16DC0FAF19EB6A1
:1005DC0020D000016A516B116C116D1119E00101F1
:1005EC00F751F811F911FA110CE18EC1E1FF8FC12D
:1005FC00E2FF030EE66E8CC100F08DC101F013DE3C
:10060C0008D0010E0101F75F000EF85BF95BFA5B95
:08061C00DED7F6C100F0120068
:10062400A19AF5C16AFF70C0F6F171C0F7F172C00A
:10063400F8F173C0F9F168A422D00001705171116E
:10064400721173111BE00101F651F711F811F91140
:100654000EE1AAC1E1FFABC1E2FF040EE66EA8C140
:1006640000F0A9C101F0E3DD010E006E3BD0010EE4
:100674000101F65F000EF75BF85BF95BDCD770C035
:10068400F6F171C0F7F172C0F8F173C0F9F1A1BAD3
:1006940022D0000170517111721173111BE001011C
:1006A400F651F711F811F9110EE1AAC1E1FFABC13E
:1006B400E2FF040EE66EA8C100F0A9C101F0B7DDA7
:1006C400010E006E0FD0010E0101F65F000EF75B04
:1006D400F85BF95BDCD766BC02D0006A03D06684A1
:0606E400020E006E120080
:0A06EA00000E82B4010E006E120033
:0A06F400000E82B8010E006E120025
:1006FE0070C0F5F171C0F6F172C0F7F173C0F8F188
:10070E00668266A220D000017051711172117311B0
:10071E0019E00101F551F611F711F8110CE1AAC11A
:10072E00E1FFABC1E2FF060EE66EA8C100F0A9C163
:10073E0001F078DD08D0010E0101F55F000EF65BC9
:08074E00F75BF85BDED7120037
:0407560066841200A3
:10075A006AC0F5F16BC0F6F16CC0F7F16DC0F8F143
:10076A00C582C5A220D000016A516B116C116D11AE
:10077A0019E00101F551F611F711F8110CE18EC1DA
:10078A00E1FF8FC1E2FF060EE66E8CC100F08DC15B
:10079A0001F04ADD08D0010E0101F55F000EF65B9B
:0807AA00F75BF85BDED71200DB
:0C07B200000E0F0121B3010E006E1200BA
:0A07BE00000E82BA010E006E120058
:0A07C800000E86B2010E006E120052
:0A07D200000E82B8010E006E120046
:0A07DC00000E86B0010E006E120040
:0407E600C5841200B4
:0A07EA00000E81B0010E006E120037
:0A07F400000E81B4010E006E120029
:0A07FE00000E86B4010E006E12001A
:0A080800000E82B6010E006E120011
:0A081200000EACB2010E006E1200E1
:10081C001DCF01F00F0122A302D02299228901C021
:04082C0000F01200C6
:0A083000000E82B6010E006E1200E9
:0A083A00000E82B8010E006E1200DD
:0A084400000E82B0010E006E1200DB
:10084E006AC0F7F16BC0F8F16CC0F9F16DC0FAF146
:10085E000101F56BF66BF651120802E1F5518E08A7
:10086E0008E3F9DC005201E004D00101F54BF62B50
:10087E00F2D70101120EF65D02E18F0EF55D03E374
:10088E007B0E006E26D0C580C5A022D000016A5115
:10089E006B116C116D111BE00101F751F811F9117B
:1008AE00FA110EE18EC1E1FF8FC1E2FF050EE66E79
:1008BE008CC100F08DC101F0B5DC010E006E09D0C7
:1008CE00010E0101F75F000EF85BF95BFA5BDCD7F6
:0408DE00006A12009A
:0A08E200000EA4BA010E006E120011
:0A08EC00000E9EBA010E006E12000D
:0A08F600000E80B0010E006E12002B
:0A090000000E82B6010E006E120018
:0A090A00000E84B4010E006E12000E
:0A091400000E82B2010E006E120008
:0A091E00000E84B0010E006E1200FE
:0A092800000E82BA010E006E1200EC
:080932000AAE029E000E120045
:10093A000B840BAEA8EF04F0010E036E026A016A83
:0A094A00006A0A360232FF0E1200A6
:0E095400026A016A006A086A036A000E120055
:100962000101F36BF46BECC1F1F1EDC1F2F1EBC1FA
:1009720000F0003600900080AEC1E1FFAFC1E2FF9F
:1009820000C0E6FFACC100F0ADC101F051DC005087
:100992000101F313000EF413010EEE5F000EEF5B84
:1009A200EE51EF1115E0B8C1E1FFB9C1E2FF010E4E
:1009B200E66EB6C100F0B7C101F03ADCF1C1E1FF69
:1009C200F2C1E2FF00C0E6FF0101F14BF22BE4D7D6
:1009D200B8C1E1FFB9C1E2FFE66AB6C100F0B7C132
:1009E20001F026DCF1C1E1FFF2C1E2FF00C0E6FF47
:1009F2000101F051000A05E1B2C100F0B3C101F0FA
:100A020017DC0101F051010A05E1CAC100F0CBC1B6
:0E0A120001F00EDCF3C100F0F4C101F012009F
:100A20000101F36BF46BECC1F1F1EDC1F2F1EBC13B
:100A300000F000360090AEC1E1FFAFC1E2FF00C0A0
:100A4000E6FFACC100F0ADC101F019EC01F00050BF
:100A50000101F313000EF413EEC100F0EFC101F039
:100A6000010EEE5F000EEF5B0050011018E0AEC10A
:100A7000E1FFAFC1E2FFF1C1E9FFF2C1EAFFEECF52
:100A8000E6FFACC100F0ADC101F019EC01F000507F
:100A90000101F313000EF413F14BF22BDDD7F051EB
:100AA000000A06E1B2C100F0B3C101F019EC01F097
:100AB0000101F051010A06E1C6C100F0C7C101F011
:0E0AC00019EC01F0F3C100F0F4C101F01200D6
:100ACE00050E0B6E0F0E0C6EF10E0D6E0D2EFED76B
:0A0ADE000C2EFCD70B2EFAD71200E5
:100AE8000101EB6BEC6BC6C100F0C7C101F019EC5A
:100AF80001F000C0EBF1000E0101EC6FEBC100F05A
:060B0800ECC101F0120037
:080B0E000B6A0B86FF0E1200BA
:100B16000B820BAE95EF05F003680268016800686A
:080B26000A360232FF0E120034
:100B2E008A0E0101906F010E916FFB0E926F010EF6
:100B3E00936F620E0001786F030E796F000E7A6F5D
:100B4E00000E7B6FEC0E0101BE6F080EBF6F000E24
:100B5E00C06F000EC16F120EBA6F080EBB6F000E83
:100B6E00BC6F000EBD6FAC8A900EAB6E948E949CD3
:0C0B7E009EAA03D0AECF00F0FBD71200FF
:100B8A00640E0101C26F020EC36F000EC46F000E25
:100B9A00C56F4E0E986F080E996F000E9A6F000E71
:100BAA009B6F5A0EA06F070EA16F000EA26F000E68
:100BBA00A36F5C0E9C6F050E9D6FF50E9E6F010E66
:100BCA009F6F960E886F040E896FF50E8A6F010E5D
:100BDA008B6FE60E846F070E856F000E866F000E10
:100BEA00876F949894968B988B9694889486C79ED0
:080BFA00C79C380EC66E120004
:100C0200070E0101E86FE7C1E9F16DDFB0C1EBF159
:100C1200E80EEC6F010EED6F020EEE6F000EEF6F3D
:080C2200F06BFDDE53DF120050
:100C2A007A0E0101906F010E916FFB0E926F010E09
:100C3A00936F1C0E0001786F080E796F000E7A6FA1
:100C4A00000E7B6FE20E0101BE6F080EBF6F000E31
:100C5A00C06F000EC16FB20EBA6F070EBB6F000EE7
:100C6A00BC6F000EBD6F0F01218B900E226F98840E
:0E0C7A009892A4AA03D01DCF00F0FBD7120061
:100C8800080E0101E86FE7C1E9F12ADFB0C1EBF115
:100C9800E80EEC6F010EED6F020EEE6F000EEF6FB7
:080CA800F06BBADE10DF120050
:100CB000070E0101E76F400EE86F16DFB0C1EBF1E0
:100CC000E70EEC6F010EED6F020EEE6F000EEF6F90
:060CD000F06BA6DE12002D
:100CD6000101E751000A0AE1000EA46F000EA56F9C
:100CE600000EA66F8A0EA76FB16B28D0E751010AD6
:100CF6000AE1000EA46F000EA56F000EA66F8A0E05
:100D0600A76FB16B1BD0E751020A0BE1000EA46F6F
:100D1600000EA56F000EA66F880EA76F020EB16FAC
:100D26000DD0E751030A0AE1000EA46F000EA56F6D
:0E0D3600000EA66F860EA76F040EB16F12009E
:100D4400060E0101E76FCEDEB0C1EBF1E70EEC6FEA
:100D5400010EED6F010EEE6F000EEF6F010EF06FDE
:100D64005DDEB0C1EBF1E80E0101EC6F010EED6F39
:100D7400010EEE6F000EEF6FF06BF1DDE8C100F0D5
:020D840012005B
:100D86000C6A0E6A0250D8A4DCEF06F001C002F02D
:100D960000C001F0006A0E860250D8A4DCEF06F00F
:100DA60001C002F0016A0E960E880250D8B4EEEF2A
:100DB60006F00E50035ED8A4D8A0F3EF06F0D89044
:100DC60002BEF8EF06F0003601360236032EE3EFD8
:100DD60006F0F3EF06F0010E0C6EB9DDFBEF06F040
:100DE600020E0C6EA7DDFBEF06F0040E0C6E9EDD08
:020DF6001200E9
:100DF800DCC1DFF1DDC1E0F1DEC1E1F10BD0500E65
:100E0800C86EBFDE44D0140EC86EBBDE40D0040EE0
:100E1800006E3FD0DFC1F6FFE0C1F7FFE1C1F8FF88
:100E28000900F5CF01F00900F5CF02F00900F5CF70
:100E380003F00900F5CF04F00450000A08E103505C
:100E4800010A05E10250860A02E10150A00AD7E032
:100E5800DFC1F6FFE0C1F7FFE1C1F8FF0900F5CFF8
:100E680001F00900F5CF02F00900F5CF03F0090001
:100E7800F5CF04F00450000A08E10350060A05E122
:100E880002501A0A02E10150800ABDE0C0D7000EE4
:040E9800006E1200D6
:100E9C0036D00F012087060E1F6F820E1E6F218524
:100EAC00BEDE7CD00F012087030E1F6F400E1E6F1D
:100EBC002185B5DE73D00F012087010E1F6FA00EA8
:100ECC001E6F2185ACDE6AD00F0120871F6BCF0E01
:100EDC001E6F2185A4DE62D00F0120871F6B8A0E46
:100EEC001E6F21859CDE5AD00F0120871F6B440E8C
:100EFC001E6F218594DE52D0060E006E59D0000E66
:100F0C00006E0101DF1908E10050DE1905E1120E37
:100F1C00DD1902E1DC51C00ABCE0000E006EDF19E5
:100F2C0008E10050DE1905E1250EDD1902E1DC5166
:100F3C00800AB8E0000E006EDF1908E10050DE19DF
:100F4C0005E14B0EDD1902E1DC51000AB4E0000EA4
:100F5C00006EDF1908E10050DE1905E1960EDD196F
:100F6C0002E1DC51000AB0E0000E006EDF1908E16E
:100F7C000050DE1905E1E10EDD1902E1DC51000A39
:100F8C00ABE0DF51000A08E1DE51010A05E1DD5159
:100F9C00C20A02E1DC51000AA7E0AED701017A0EC9
:100FAC00946F010E956FFB0E966F010E976F006A92
:020FBC00120021
:100FBE0096C1E1FF97C1E2FFDCC1E9FFDDC1EAFFA7
:100FCE00EECFE6FF94C100F095C101F019EC01F0EF
:040FDE00006A120093
:100FE20021D0670EAF6EAC94A1DD6BD0CF0EAF6E89
:100FF200AC849CDD66D0670EAF6EAC8497DD61D0A9
:10100200330EAF6EAC8492DD5CD0220EAF6EAC8438
:101012008DDD57D0100EAF6EAC8488DD52D0060E37
:10102200006E58D00101000E006EDF1908E1005079
:10103200DE1905E1120EDD1902E1DC51C00AD1E030
:10104200000E006EDF1908E10050DE1905E1250EE1
:10105200DD1902E1DC51800AC9E0000E006EDF19E1
:1010620008E10050DE1905E14B0EDD1902E1DC5109
:10107200000AC1E0000E006EDF1908E10050DE191F
:1010820005E1960EDD1902E1DC51000AB9E0000E1D
:10109200006EDF1908E10050DE1905E1E10EDD19ED
:1010A20002E1DC51000AB1E0DF51000A08E1DE5141
:1010B200010A05E1DD51C20A02E1DC51000AAAE09F
:1010C200AED78A0E946F010E956FFB0E966F010ECE
:0610D200976F006A120096
:1010D800DCC1DFF1DDC1E0F1DEC1E1F10BD0500E82
:1010E800C86E4FDD44D0140EC86E4BDD40D0040EE0
:1010F800006E3FD0DFC1F6FFE0C1F7FFE1C1F8FFA6
:101108000900F5CF01F00900F5CF02F00900F5CF8D
:1011180003F00900F5CF04F00450000A08E1035079
:10112800010A05E10250860A02E10150A00AD7E04F
:10113800DFC1F6FFE0C1F7FFE1C1F8FF0900F5CF15
:1011480001F00900F5CF02F00900F5CF03F009001E
:10115800F5CF04F00450000A08E10350060A05E13F
:1011680002501A0A02E10150800ABDE0C0D7000E01
:04117800006E1200F3
:10117C0021D0670EAF6EAC94D4DC6BD0CF0EAF6EBB
:10118C00AC84CFDC66D0670EAF6EAC84CADC61D0A9
:10119C00330EAF6EAC84C5DC5CD0220EAF6EAC846B
:1011AC00C0DC57D0100EAF6EAC84BBDC52D0060E38
:1011BC00006E58D00101000E006EDF1908E10050DE
:1011CC00DE1905E1120EDD1902E1DC51C00AD1E095
:1011DC00000E006EDF1908E10050DE1905E1250E46
:1011EC00DD1902E1DC51800AC9E0000E006EDF1946
:1011FC0008E10050DE1905E14B0EDD1902E1DC516E
:10120C00000AC1E0000E006EDF1908E10050DE1983
:10121C0005E1960EDD1902E1DC51000AB9E0000E81
:10122C00006EDF1908E10050DE1905E1E10EDD1951
:10123C0002E1DC51000AB1E0DF51000A08E1DE51A5
:10124C00010A05E1DD51C20A02E1DC51000AAAE003
:10125C00AED78A0E946F010E956FFB0E966F010E32
:06126C00976F006A1200FA
:10127200DCC1DFF1DDC1E0F1DEC1E1F10BD0500EE6
:10128200C86E82DC44D0140EC86E7EDC40D0040EE0
:10129200006E3FD0DFC1F6FFE0C1F7FFE1C1F8FF0A
:1012A2000900F5CF01F00900F5CF02F00900F5CFF2
:1012B20003F00900F5CF04F00450000A08E10350DE
:1012C200010A05E10250860A02E10150A00AD7E0B4
:1012D200DFC1F6FFE0C1F7FFE1C1F8FF0900F5CF7A
:1012E20001F00900F5CF02F00900F5CF03F0090083
:1012F200F5CF04F00450000A08E10350060A05E1A4
:1013020002501A0A02E10150800ABDE0C0D7000E65
:04131200006E120057
:1013160025D0670EAF6EAC9407DC6FD0CF0EAF6EE4
:10132600AC8402DC6AD0670EAF6EAC8497EC05F035
:1013360064D0330EAF6EAC8497EC05F05ED0220E0F
:10134600AF6EAC8497EC05F058D0100EAF6EAC843F
:1013560097EC05F052D0060E006E58D00101000E33
:10136600006EDF1908E10050DE1905E1120EDD19E5
:1013760002E1DC51C00ACDE0000E006EDF1908E183
:101386000050DE1905E1250EDD1902E1DC51800A67
:10139600C5E0000E006EDF1908E10050DE1905E118
:1013A6004B0EDD1902E1DC51000ABDE0000E006EB5
:1013B600DF1908E10050DE1905E1960EDD1902E19C
:1013C600DC51000AB6E0000E006EDF1908E100509D
:1013D600DE1905E1E10EDD1902E1DC51000AAFE09C
:1013E600DF51000A08E1DE51010A05E1DD51C20ABA
:1013F60002E1DC51000AA9E0AED78A0E946F010E15
:0E140600956FFB0E966F010E976F006A120035
:10141400DCC1F6FFDDC1F7FFDEC1F8FF0900F5CF3F
:10142400C6F10900F5CFC7F10900F5CFC8F10900ED
:10143400F5CFC9F1040E0101DC25F66E000EDD21A5
:10144400F76E000EDE21F86E0900F5CFB2F1090047
:10145400F5CFB3F10900F5CFB4F10900F5CFB5F13B
:10146400080EDC25F66E000EDD21F76E000EDE217F
:10147400F86E0900F5CFCAF10900F5CFCBF10900E8
:10148400F5CFCCF10900F5CFCDF10C0EDC25F66ECD
:10149400000EDD21F76E000EDE21F86E0900F5CF97
:1014A400ACF10900F5CFADF10900F5CFAEF10900BB
:1014B400F5CFAFF1100EDC25F66E000EDD21F76ED0
:1014C400000EDE21F86E0900F5CFB6F10900F5CF64
:1014D400B7F10900F5CFB8F10900F5CFB9F1120061
:1014E400086A096A000E07620364F7EF0AF0025003
:1014F40006180A6E075003267E0ED8A088EF0AF05D
:10150400035ED8B0FCEF0AF08CEF0AF0035ED8A0BB
:1015140001EF0BF0028E068E02C00EF001C00BF03C
:1015240000C00DF000500402F4CF0CF0015005028D
:10153400F4CF00F0F3CF08F00402F3500C26F4507B
:101544000822000E00220D500502F3500C26F45020
:101554000822000E002202500402F3500826F45020
:10156400002202500502016A000E0122F3500026F7
:10157400F45001220D500602F3500826F4500022C4
:10158400026A000E012202220B500602F3500026CA
:10159400F4500122000E02220E500602F3500126DE
:1015A400F450022202BEDFEF0AF00836003601369C
:1015B40002360306D8B401EF0BF0F2EF0AF0D8803C
:1015C400800E08640030000E002201220222D8A0FE
:1015D400F2EF0AF0023201320032034AFCEF0AF061
:1015E4000AAE029E000E04EF0BF0010EAAEC04F00A
:1015F40004EF0BF0020E8BEC05F004EF0BF0040E7D
:061604009DEC04F0120051
:10160A000D6A086A0050D8B4000C04180A6E0ABEA3
:10161A000D1E0B6A04AE02D0041E042A00AE02D0CC
:10162A00001E002A005004100A6E0ABE1FD0045081
:10163A00085E003600340836045008260036060EC6
:10164A000C6E00340836045000B0085E00A008266C
:10165A0000360C2EF6D700A008260BB015D00DAE1A
:10166A00000C001E002A081E082A000C04AE09D02D
:10167A0000BE04D00050086E006AF1D7006A002A42
:10168A00000C001E0B2AD3D7082A0450085CD8A4E1
:0E169A00E6D7086A002A00AEE2D7FF0C120065
:1016A80000C008F00150006E016A026A036A0B6A02
:1016B8000C6A016A026A036A960E036E0A6A00AE31
:1016C8006CEF0BF0081E001E082AD8B4002A0A8EF8
:1016D80000C001F008C000F0086A026AC3EC06F016
:0216E8001200EE
:1016EA000450000A12E10550000A0FE10650000AF0
:1016FA000CE10750000A09E1FF0E006EFF0E016EB1
:10170A007F0E026EFF0E036EA8D0086A096A0750A0
:10171A00D8B420EF0CF00350D8B425EF0CF00250E7
:10172A0006180A6E028E068E0E6A02C008F001C002
:10173A000CF000C00DF004500D5E0550D8A0053C19
:10174A000C5E0650D8A0063C085E086A0C6A0D6A50
:10175A00D8A0B7EF0BF0D89002320132003208322B
:10176A00010E0E6E0750035ED8A0C4EF0BF07E0E7A
:10177A000E240326D8B02AEF0CF0CAEF0BF07E0E27
:10178A000E240326D8A02FEF0CF0180E0B6E0D3680
:10179A000C3608360036013602360E360450005E24
:1017AA000550D8A0053C015E0650D8A0063C025E52
:1017BA0006340E120EA0E5EF0BF00D80F0EF0BF0E1
:1017CA00045000260550D8B0053C01260650D8B072
:1017DA00062802260D900B2ECCEF0BF016EF0CF01C
:1017EA00D8900036013602360E360450005E055097
:1017FA00D8A0053C015E0650D8A0063C025E06341D
:10180A000E10010B0D26D8B00C2AD8B4082AD8A479
:10181A0016EF0CF008320C320D32032AD8B42AEF34
:10182A000CF00AAE089E0850026E0C50016E0D5064
:10183A00006E32EF0CF0010E87EC05F032EF0CF07F
:10184A00020EAAEC04F032EF0CF0040E8BEC05F059
:0C185A0032EF0CF0080E9DEC04F01200C0
:10186600DCC104F0DDC105F004C002F005C003F0E0
:10187600044A052ADEC100F0DFC101F00101DE4B9A
:10188600DF2B00C0E9FF01C0EAFF02C0E1FF03C091
:10189600E2FFEECFE6FF02C0E9FF03C0EAFFEE5229
:0E18A60001E0E2D7DCC100F0DDC101F012006C
:1018B4000A6A0350D8A40A800750D8A40A820A509E
:1018C400D8B4BDEF0CF0030AD8B476EF0CF00AB02C
:1018D40071EF0CF006AEBBEF0CF0B9EF0CF002AEFA
:1018E400B9EF0CF0BBEF0CF00250800B0A6E029EB5
:1018F4000650800B069E0A18D8B487EF0CF00A50E5
:10190400D8B4B9EF0CF0BBEF0CF00750035CD8B4BB
:1019140091EF0CF0D8A0ADEF0CF0B3EF0CF0065043
:10192400025CD8B49BEF0CF0D8A0ADEF0CF0B3EF91
:101934000CF00550015CD8B4A5EF0CF0D8A0ADEFC5
:101944000CF0B3EF0CF00450005CD8B4BDEF0CF015
:10195400D8B0B3EF0CF00A52D8B4BBEF0CF0B9EF27
:101964000CF00A52D8B4B9EF0CF0BBEF0CF0D880ED
:0E1974001200D8901200D880D8841200120001
:101982000101DF6B810EE76F01EC06F0A2EC06F0BD
:1019920000C0E6F1DEC1E7F144EC06F0DEC1E7F19A
:1019A2006BEC06F0050EE615006ED8B424D174EC8B
:1019B20005F0B0C1EBF1DF0EEC6F010EED6F010E21
:1019C200EE6F000EEF6F010EF06F10EC05F0B0C17C
:1019D200EBF1E00E0101EC6F010EED6F060EEE6F02
:1019E200000EEF6FF06BB1EC04F0DCC1E1FFDDC182
:1019F200E2FFE1C1E6FF000EE66EDCC1E9FFDDC1F8
:101A0200EAFFEECF03F0EECF04F003C001F0006A6C
:101A1200DCC1E1FFDDC1E2FF00C0E6FF01C0E6FF7D
:101A2200DCC1E9FFDDC1EAFF0101E051EE10006E09
:101A3200EECF01F0000E0112DCC1E1FFDDC1E2FFD9
:101A420000C0E6FF01C0E6FF020EDC25E16E000EDB
:101A5200DD21E26EE3C1E6FF000EE66E020EDC253A
:101A6200E16E000EDD21E26E020EDC25E96E000E53
:101A7200DD21EA6EEECF03F0EECF04F003C001F0F9
:101A8200006A00C0E6FF01C0E6FF020EDC25E16E3F
:101A9200000EDD21E26E020EDC25E96E000EDD2174
:101AA200EA6EE251EE10006EEECF01F0000E01126E
:101AB20000C0E6FF01C0E6FF040EDC25E16E000E69
:101AC200DD21E26EE5C1E6FF000EE66E040EDC25C6
:101AD200E16E000EDD21E26E040EDC25E96E000EE1
:101AE200DD21EA6EEECF03F0EECF04F003C001F089
:101AF200006A00C0E6FF01C0E6FF040EDC25E16ECD
:101B0200000EDD21E26E040EDC25E96E000EDD2101
:101B1200EA6EE451EE10006EEECF01F0000E0112FB
:101B220000C0E6FF01C0E6FFDCC1E9FFDDC1EAFF5C
:101B3200EECF03F0EECF04F0B1C102F003C000F02B
:101B420004C001F0025007E001320032019E01BCE4
:101B5200018EFF0FF8D7DCC1E1FFDDC1E2FF00C05B
:101B6200E6FF01C0E6FF020EDC25E16E000EDD217C
:101B7200E26E020EDC25E96E000EDD21EA6EEECF8A
:101B820003F0EECF04F0B1C102F003C000F004C0D4
:101B920001F0025007E001320032019E01BC018EC9
:101BA200FF0FF8D700C0E6FF01C0E6FF040EDC25F8
:101BB200E16E000EDD21E26E040EDC25E96E000E00
:101BC200DD21EA6EEECF03F0EECF04F0B1C102F0F8
:101BD20003C000F004C001F0025007E001320032FD
:101BE200019E01BC018EFF0FF8D700C0E6FF01C0C5
:081BF200E6FF58EC06F01200BA
:021BFA001200D7
:101BFC000101DA6BDB6BCEC1D6F1CFC1D7F1D0C10D
:101C0C00D8F1D1C1D9F1D951FF0A08E1D851FF0A55
:101C1C0005E1D751FF0A02E1D651FF0A0CE1D2C10E
:101C2C00DCF1D3C1DDF1660EDE6F000EDF6F15DE69
:101C3C00030E006EEDD1010ED46FD8AF0ED0800E16
:101C4C00D819006E00C0D8F1D42BD2C1E1FFD3C19A
:101C5C00E2FF2D0EE66ED24BD32B000E006ED9197F
:101C6C0008E10050D81905E10050D71902E1D6510E
:101C7C00000A0BE1D2C1DCF1D3C1DDF16E0EDE6FD7
:101C8C00000EDF6FEADD006AC3D1D951FF0A08E10B
:101C9C00D851000A05E1D751000A02E1D651000AD9
:101CAC000CE1D2C1DCF1D3C1DDF1550EDE6F000EBB
:101CBC00DF6FD3DDD4C100F0ABD1000E046E000E8B
:101CCC00056E000E066E7F0E076ED6C100F0D7C1F2
:101CDC0001F0D8C102F0D9C103F0E6DD010ED8B095
:101CEC00000E006E00521CE0D6C100F0D7C101F00E
:101CFC00D8C102F0D9C103F0000E046E000E056EBF
:101D0C00200E066E820E076E72EC0AF000C0D6F141
:101D1C0001C0D7F102C0D8F103C0D9F1DB07CDD790
:101D2C00000E046E000E056E200E066E820E076EFF
:101D3C00D6C100F0D7C101F0D8C102F0D9C103F06F
:101D4C00B3DD000ED8B0010E006E00521CE0D6C1FF
:101D5C0000F0D7C101F0D8C102F0D9C103F0CD0E0B
:101D6C00046ECC0E056E4C0E066E7B0E076E72EC7E
:101D7C000AF000C0D6F101C0D7F102C0D8F103C0FF
:101D8C00D9F1DB2BCDD7FF0ED615086EFF0ED7156C
:101D9C00096E7F0ED8150A6E000ED9150B6E08C091
:101DAC0004F009C005F00AC006F00BC007F00436B9
:101DBC000490053606360736000ED615006E000E5A
:101DCC00D715016E000ED815026EFF0ED915036ED5
:101DDC0000C0D6F101C0D7F102C0D8F103C0D9F1CF
:101DEC000450D611006E0550D711016E0650D81153
:101DFC00026E0750D911036E00C0D6F101C0D7F1A5
:101E0C0002C0D8F103C0D9F17F0ED95D006E00C0BD
:101E1C00D5F1010ED96F00C004F0D6C100F0D7C1C6
:101E2C0001F0D8C102F0D9C103F0045007E000362C
:101E3C000090013602360336FF0FF8D700C0D6F1FA
:101E4C0001C0D7F102C0D8F103C0D9F1D2C1E1FF72
:101E5C00D3C1E2FFD951300FE66ED24BD32B800E9B
:101E6C00DB19006E800E010A005C08E3800E060A86
:101E7C00006E800EDB19005C01E30AD0D2C1E1FFD9
:101E8C00D3C1E2FF2E0EE66ED24BD32B010EDA6FCE
:101E9C00060ED56FD551000A54E0D96BD6C100F0AF
:101EAC00D7C101F0D8C102F0D9C103F000360090BF
:101EBC000136023603360036009001360236033600
:101ECC00D6510026D7510122D8510222D9510322D2
:101EDC0000C0D6F101C0D7F102C0D8F103C0D9F1CE
:101EEC00D6C100F0D7C101F0D8C102F0D9C103F0BE
:101EFC000036009001360236033600C0D6F101C020
:101F0C00D7F102C0D8F103C0D9F1D2C1E1FFD3C1DE
:101F1C00E2FFD951300FE66ED24BD32BDA51000AC7
:101F2C000EE1DB07DB51000A0AE1D2C1E1FFD3C1AC
:101F3C00E2FF2E0EE66ED24BD32B010EDA6FD507D5
:101F4C00A9D7FF0ED225E96EFF0ED321EA6EEE5013
:101F5C00300A05E1010ED25F000ED35BF2D7FF0E03
:101F6C00D225E96EFF0ED321EA6EEE502E0A04E163
:101F7C00010ED25F000ED35BDB51000A43E0D2C1ED
:101F8C00E1FFD3C1E2FF650EE66ED24BD32B800E80
:101F9C00DB19006E800E000A005C0BE2D2C1E1FF7F
:101FAC00D3C1E2FF2D0EE66ED24BD32BDB510008D2
:101FBC00DB6FDBC1D5F1800E090A006E800EDB19D8
:101FCC00005C0FE20A0E046ED5C100F005EC0BF0BC
:101FDC00D2C1E1FFD3C1E2FF0050300FE66ED24B0D
:101FEC00D32B0A0E046ED5C100F005EC0BF008C023
:101FFC0000F0D2C1E1FFD3C1E2FF0050300FE66E1A
:10200C00D24BD32BD2C1E1FFD3C1E2FFE66A006A07
:02201C001200B0
:10201E001ED0CFC1DCF1D0C1DDF1D1C1DEF1FCECBF
:10202E0006F020D0CFC1DCF1D0C1DDF1D1C1DEF19F
:10203E0039EC09F017D0CFC1DCF1D0C1DDF1D1C13F
:10204E00DEF16CEC08F00ED0010E006E0BD001012B
:10205E00CE51000ADEE0CE51010AE4E0CE51020A72
:06206E00EAE0F2D71200C7
:10207400D4C1B0F1D1C1DCF1D2C1DDF1D3C1DEF103
:102084000AEC0AF0CEC1DCF1CFC1DDF1D0C1DEF142
:04209400B2DD1200A7
:10209800CEC1D1F1CFC1D2F10D0E0101D36F0A0E1D
:1020A800D46F3AD0D1C1DCF1D2C1DDF1DFEC07F059
:1020B8003ED0D1C1E9FFD2C1EAFFEE520AE0D1C158
:1020C800DCF1D2C1DDF1DFEC07F00101D14BD22BFD
:1020D800F0D72DD0D1C1E9FFD2C1EAFFEE520AE014
:1020E800D1C1DCF1D2C1DDF1DFEC07F00101D14B48
:1020F800D22BF0D70101D30EDC6F010EDD6FDFECC0
:1021080007F0D40E0101DC6F010EDD6FDFEC07F084
:102118000ED0060E006E0CD00101D051000AC2E0AC
:10212800D051010AC6E0D051020AD4E0F2D7006AC1
:02213800120093
:10213A00D00E0101DC6F010EDD6FCFC1DEF11CDCB8
:10214A000101CE51000A19E1D0C100F0D1C101F05C
:10215A0054EC0BF0A4C104F0A5C105F0A6C106F029
:10216A00A7C107F075EC0BF000C0D6F101C0D7F19A
:10217A0002C0D8F103C0D9F139D00101CE51020A07
:10218A0019E1D2C100F0D3C101F054EC0BF0A4C1A3
:10219A0004F0A5C105F0A6C106F0A7C107F075ECC9
:1021AA000BF000C0D6F101C0D7F102C0D8F103C0CC
:1021BA00D9F11CD00101CE51040A18E1D2C100F0B4
:1021CA00D3C101F054EC0BF0A4C104F0A5C105F091
:1021DA00A6C106F0A7C107F075EC0BF000C0D6F156
:1021EA0001C0D7F102C0D8F103C0D9F1D6C100F0BD
:0E21FA00D7C101F0D8C102F0D9C103F0120024
:102208002FD0CFC1DCF1D0C1DDF1D1C1DEF1D2C117
:10221800DFF1BEEC08F032D0CFC1DCF1D0C1DDF186
:10222800D1C1DEF1D2C1DFF18BEC09F027D0CFC1EB
:10223800DCF1D0C1DDF1D1C1DEF1D2C1DFF14EEC6C
:1022480007F01CD0CFC1DCF1D0C1DDF1D1C1DEF186
:10225800D2C1DFF1F1EC07F011D0010E006E0ED003
:102268000101CE51000ACDE0CE51010AD5E0CE5190
:0E227800020ADDE0CE51100AE5E0EFD71200B9
:102286000101CE6B170ECF6F250ED06F000ED16FEA
:10229600C3DE100E0101CE6F800ECF6F250ED06FFC
:1022A600000ED16FD26FADDF410E0101CE6F000E71
:1022B600CF6F020ED06FEDDE050E0B6E0F0E0C6E9D
:1022C600F10E0D6E0D2EFED70C2EFCD70B2EFAD767
:0222D6001200F4
:1022D8000900F5CFE6FF0006FBE10106F9E112006F
:1022E800440E0101CE6F240ECF6F000ED06F030E87
:1022F800D16F250ED26F000ED36F300ED46FB6DEBD
:022308001200C1
:10230A00000E0101CE6F020ECF6F12DF00C074F013
:10231A0001C075F002C076F003C077F0020E010129
:10232A00CE6F030ECF6F04DF00C07CF001C07DF0DA
:10233A0002C07EF003C07FF0040E0101CE6F030ECF
:10234A00CF6FF6DE00C080F101C081F102C082F1D8
:10235A0003C083F174C0CEF175C0CFF176C0D0F15D
:10236A0077C0D1F1800E0101D26F000ED36F41DC2C
:10237A00590ECE6F000ECF6F010ED06F88DE800E21
:10238A000101CE6F000ECF6F020ED06F80DE7CC0CF
:10239A00CEF17DC0CFF17EC0D0F17FC0D1F1800EE9
:1023AA000101D26F000ED36F24DC220ECE6F000E15
:1023BA00CF6F010ED06F6BDE800E0101CE6F000E63
:1023CA00CF6F020ED06F63DE80C1CEF181C1CFF133
:1023DA0082C1D0F183C1D1F1800E0101D26F000E0A
:1023EA00D36F07DC150ECE6F000ECF6F010ED06FC4
:1023FA004EDE800E0101CE6F000ECF6F020ED06F3F
:10240A0046DE2F0E0101CE6F000ECF6F020ED06F87
:10241A003EDE290E0B6E960E0C6E7F0E0D6E0D2E85
:0C242A00FED70C2EFCD70B2EFAD71200A8
:0E2436008EEC12F025DF55DF65DFFED7FFD7F5
:10251C0010EE15F05F0E006E010E016EA40EF66E3D
:0E252C00240EF76E000EF86E6CEC11F012002B
:10244400A601FB019801FB016C01FB014201FB01A8
:102454003401FB015E01FB015001FB010802FB0199
:10246400FA01FB012402FB011602FB01EC01FB0152
:10247400F6080000440800001E09000000090000DE
:102484003A0800002809000014090000EA070000C7
:102494007E03000088030000C402000092020000D2
:0D24A4002D2D205A2061786973203A200008
:0D24B1002D2D20592061786973203A2000FC
:1024BE00202D2D2D2D2D2D2D2D2D2D2D2D2D2D2D4B
:0224CE002000EC
:1024D0005F5F5F2053797374656D20496E69742066
:0424E0005F5F5F00DB
:0424E400494E460017
:0D24E8002D2D20582061786973203A2000C6
:0424F5004E614E00E6
:0424F90000000000DF
:0224FD003000AD
:0424FF0000000000D9
:102503004E080000E60700005A0700009604F50194
:042513005C05F5016D
:04251700A086010099
:020000040030CA
:0E00000015137F7CF98B91FFFFC0FFE0FF40DE
:00000001FF
